{
  "_format": "hh-sol-artifact-1",
  "contractName": "RealStateNFT",
  "sourceName": "contracts/RealStateNFT.sol",
  "abi": [
    {
      "inputs": [],
      "stateMutability": "nonpayable",
      "type": "constructor"
    },
    {
      "anonymous": false,
      "inputs": [
        {
          "indexed": true,
          "internalType": "address",
          "name": "owner",
          "type": "address"
        },
        {
          "indexed": true,
          "internalType": "address",
          "name": "approved",
          "type": "address"
        },
        {
          "indexed": true,
          "internalType": "uint256",
          "name": "tokenId",
          "type": "uint256"
        }
      ],
      "name": "Approval",
      "type": "event"
    },
    {
      "anonymous": false,
      "inputs": [
        {
          "indexed": true,
          "internalType": "address",
          "name": "owner",
          "type": "address"
        },
        {
          "indexed": true,
          "internalType": "address",
          "name": "operator",
          "type": "address"
        },
        {
          "indexed": false,
          "internalType": "bool",
          "name": "approved",
          "type": "bool"
        }
      ],
      "name": "ApprovalForAll",
      "type": "event"
    },
    {
      "anonymous": false,
      "inputs": [
        {
          "indexed": false,
          "internalType": "uint256",
          "name": "_fromTokenId",
          "type": "uint256"
        },
        {
          "indexed": false,
          "internalType": "uint256",
          "name": "_toTokenId",
          "type": "uint256"
        }
      ],
      "name": "BatchMetadataUpdate",
      "type": "event"
    },
    {
      "anonymous": false,
      "inputs": [
        {
          "indexed": false,
          "internalType": "uint256",
          "name": "_tokenId",
          "type": "uint256"
        }
      ],
      "name": "MetadataUpdate",
      "type": "event"
    },
    {
      "anonymous": false,
      "inputs": [
        {
          "indexed": false,
          "internalType": "uint256",
          "name": "nftId",
          "type": "uint256"
        },
        {
          "indexed": false,
          "internalType": "string",
          "name": "nftURI",
          "type": "string"
        },
        {
          "indexed": false,
          "internalType": "address",
          "name": "realStateCoinContract",
          "type": "address"
        },
        {
          "indexed": false,
          "internalType": "address",
          "name": "owner",
          "type": "address"
        }
      ],
      "name": "NFTMinted",
      "type": "event"
    },
    {
      "anonymous": false,
      "inputs": [
        {
          "indexed": true,
          "internalType": "address",
          "name": "previousOwner",
          "type": "address"
        },
        {
          "indexed": true,
          "internalType": "address",
          "name": "newOwner",
          "type": "address"
        }
      ],
      "name": "OwnershipTransferred",
      "type": "event"
    },
    {
      "anonymous": false,
      "inputs": [
        {
          "indexed": true,
          "internalType": "address",
          "name": "from",
          "type": "address"
        },
        {
          "indexed": true,
          "internalType": "address",
          "name": "to",
          "type": "address"
        },
        {
          "indexed": true,
          "internalType": "uint256",
          "name": "tokenId",
          "type": "uint256"
        }
      ],
      "name": "Transfer",
      "type": "event"
    },
    {
      "inputs": [],
      "name": "NFT_VALUE",
      "outputs": [
        {
          "internalType": "uint256",
          "name": "",
          "type": "uint256"
        }
      ],
      "stateMutability": "view",
      "type": "function"
    },
    {
      "inputs": [
        {
          "internalType": "address",
          "name": "to",
          "type": "address"
        },
        {
          "internalType": "uint256",
          "name": "tokenId",
          "type": "uint256"
        }
      ],
      "name": "approve",
      "outputs": [],
      "stateMutability": "nonpayable",
      "type": "function"
    },
    {
      "inputs": [
        {
          "internalType": "address",
          "name": "owner",
          "type": "address"
        }
      ],
      "name": "balanceOf",
      "outputs": [
        {
          "internalType": "uint256",
          "name": "",
          "type": "uint256"
        }
      ],
      "stateMutability": "view",
      "type": "function"
    },
    {
      "inputs": [
        {
          "internalType": "uint256",
          "name": "nftId",
          "type": "uint256"
        },
        {
          "internalType": "address",
          "name": "to",
          "type": "address"
        }
      ],
      "name": "buyCoins",
      "outputs": [],
      "stateMutability": "payable",
      "type": "function"
    },
    {
      "inputs": [
        {
          "internalType": "string",
          "name": "nftURI",
          "type": "string"
        },
        {
          "internalType": "uint256",
          "name": "initialSupply",
          "type": "uint256"
        },
        {
          "internalType": "uint256",
          "name": "lockedAmount",
          "type": "uint256"
        },
        {
          "internalType": "string",
          "name": "coinName",
          "type": "string"
        },
        {
          "internalType": "string",
          "name": "coinSymbol",
          "type": "string"
        }
      ],
      "name": "createNFT",
      "outputs": [],
      "stateMutability": "payable",
      "type": "function"
    },
    {
      "inputs": [
        {
          "internalType": "uint256",
          "name": "tokenId",
          "type": "uint256"
        }
      ],
      "name": "getApproved",
      "outputs": [
        {
          "internalType": "address",
          "name": "",
          "type": "address"
        }
      ],
      "stateMutability": "view",
      "type": "function"
    },
    {
      "inputs": [
        {
          "internalType": "address",
          "name": "owner",
          "type": "address"
        },
        {
          "internalType": "address",
          "name": "operator",
          "type": "address"
        }
      ],
      "name": "isApprovedForAll",
      "outputs": [
        {
          "internalType": "bool",
          "name": "",
          "type": "bool"
        }
      ],
      "stateMutability": "view",
      "type": "function"
    },
    {
      "inputs": [],
      "name": "name",
      "outputs": [
        {
          "internalType": "string",
          "name": "",
          "type": "string"
        }
      ],
      "stateMutability": "view",
      "type": "function"
    },
    {
      "inputs": [],
      "name": "owner",
      "outputs": [
        {
          "internalType": "address",
          "name": "",
          "type": "address"
        }
      ],
      "stateMutability": "view",
      "type": "function"
    },
    {
      "inputs": [
        {
          "internalType": "uint256",
          "name": "tokenId",
          "type": "uint256"
        }
      ],
      "name": "ownerOf",
      "outputs": [
        {
          "internalType": "address",
          "name": "",
          "type": "address"
        }
      ],
      "stateMutability": "view",
      "type": "function"
    },
    {
      "inputs": [
        {
          "internalType": "uint256",
          "name": "propertyTokenId",
          "type": "uint256"
        }
      ],
      "name": "payRent",
      "outputs": [
        {
          "internalType": "bool",
          "name": "",
          "type": "bool"
        }
      ],
      "stateMutability": "payable",
      "type": "function"
    },
    {
      "inputs": [
        {
          "internalType": "uint256",
          "name": "",
          "type": "uint256"
        }
      ],
      "name": "propertyClient",
      "outputs": [
        {
          "internalType": "address",
          "name": "client",
          "type": "address"
        },
        {
          "internalType": "uint256",
          "name": "rentValue",
          "type": "uint256"
        }
      ],
      "stateMutability": "view",
      "type": "function"
    },
    {
      "inputs": [],
      "name": "renounceOwnership",
      "outputs": [],
      "stateMutability": "nonpayable",
      "type": "function"
    },
    {
      "inputs": [
        {
          "internalType": "address",
          "name": "from",
          "type": "address"
        },
        {
          "internalType": "address",
          "name": "to",
          "type": "address"
        },
        {
          "internalType": "uint256",
          "name": "tokenId",
          "type": "uint256"
        }
      ],
      "name": "safeTransferFrom",
      "outputs": [],
      "stateMutability": "nonpayable",
      "type": "function"
    },
    {
      "inputs": [
        {
          "internalType": "address",
          "name": "from",
          "type": "address"
        },
        {
          "internalType": "address",
          "name": "to",
          "type": "address"
        },
        {
          "internalType": "uint256",
          "name": "tokenId",
          "type": "uint256"
        },
        {
          "internalType": "bytes",
          "name": "data",
          "type": "bytes"
        }
      ],
      "name": "safeTransferFrom",
      "outputs": [],
      "stateMutability": "nonpayable",
      "type": "function"
    },
    {
      "inputs": [
        {
          "internalType": "address",
          "name": "operator",
          "type": "address"
        },
        {
          "internalType": "bool",
          "name": "approved",
          "type": "bool"
        }
      ],
      "name": "setApprovalForAll",
      "outputs": [],
      "stateMutability": "nonpayable",
      "type": "function"
    },
    {
      "inputs": [
        {
          "internalType": "address",
          "name": "client",
          "type": "address"
        },
        {
          "internalType": "uint256",
          "name": "propertyTokenId",
          "type": "uint256"
        },
        {
          "internalType": "uint256",
          "name": "rentValue",
          "type": "uint256"
        }
      ],
      "name": "setPropertyClient",
      "outputs": [],
      "stateMutability": "nonpayable",
      "type": "function"
    },
    {
      "inputs": [
        {
          "internalType": "bytes4",
          "name": "interfaceId",
          "type": "bytes4"
        }
      ],
      "name": "supportsInterface",
      "outputs": [
        {
          "internalType": "bool",
          "name": "",
          "type": "bool"
        }
      ],
      "stateMutability": "view",
      "type": "function"
    },
    {
      "inputs": [],
      "name": "symbol",
      "outputs": [
        {
          "internalType": "string",
          "name": "",
          "type": "string"
        }
      ],
      "stateMutability": "view",
      "type": "function"
    },
    {
      "inputs": [
        {
          "internalType": "uint256",
          "name": "",
          "type": "uint256"
        }
      ],
      "name": "tokenCoin",
      "outputs": [
        {
          "internalType": "contract RealStateCoin",
          "name": "",
          "type": "address"
        }
      ],
      "stateMutability": "view",
      "type": "function"
    },
    {
      "inputs": [
        {
          "internalType": "uint256",
          "name": "tokenId",
          "type": "uint256"
        }
      ],
      "name": "tokenURI",
      "outputs": [
        {
          "internalType": "string",
          "name": "",
          "type": "string"
        }
      ],
      "stateMutability": "view",
      "type": "function"
    },
    {
      "inputs": [
        {
          "internalType": "address",
          "name": "from",
          "type": "address"
        },
        {
          "internalType": "address",
          "name": "to",
          "type": "address"
        },
        {
          "internalType": "uint256",
          "name": "tokenId",
          "type": "uint256"
        }
      ],
      "name": "transferFrom",
      "outputs": [],
      "stateMutability": "nonpayable",
      "type": "function"
    },
    {
      "inputs": [
        {
          "internalType": "address",
          "name": "newOwner",
          "type": "address"
        }
      ],
      "name": "transferOwnership",
      "outputs": [],
      "stateMutability": "nonpayable",
      "type": "function"
    }
  ],
  "bytecode": "0x60806040523480156200001157600080fd5b506040518060400160405280600c81526020016b1499585b14dd185d1953919560a21b815250604051806040016040528060038152602001621494d560ea1b815250816000908162000064919062000191565b50600162000073828262000191565b505050620000906200008a6200009660201b60201c565b6200009a565b6200025d565b3390565b600780546001600160a01b038381166001600160a01b0319831681179093556040519116919082907f8be0079c531659141344cd1fd0a4f28419497f9722a3daafe3b4186f6b6457e090600090a35050565b634e487b7160e01b600052604160045260246000fd5b600181811c908216806200011757607f821691505b6020821081036200013857634e487b7160e01b600052602260045260246000fd5b50919050565b601f8211156200018c57600081815260208120601f850160051c81016020861015620001675750805b601f850160051c820191505b81811015620001885782815560010162000173565b5050505b505050565b81516001600160401b03811115620001ad57620001ad620000ec565b620001c581620001be845462000102565b846200013e565b602080601f831160018114620001fd5760008415620001e45750858301515b600019600386901b1c1916600185901b17855562000188565b600085815260208120601f198616915b828110156200022e578886015182559484019460019091019084016200020d565b50858210156200024d5787850151600019600388901b60f8161c191681555b5050505050600190811b01905550565b613804806200026d6000396000f3fe6080604052600436106200015a5760003560e01c80636352211e11620000c5578063a22cb4651162000078578063a22cb4651462000426578063b88d4fde146200044b578063c87b56dd1462000470578063d9e8843f1462000495578063e985e9c514620004ac578063f2fde38b14620004f957600080fd5b80636352211e146200036057806370a082311462000385578063715018a614620003b95780638da5cb5b14620003d157806395d89b4114620003f1578063977550e2146200040957600080fd5b8063095ea7b3116200011e578063095ea7b3146200022e5780630bb0ca3814620002535780631b30a4d4146200027857806323b872dd14620002b257806342842e0e14620002d75780634e2e2c3c14620002fc57600080fd5b80626756ea146200015f57806301ffc9a7146200017857806306fdde0314620001b25780630735200514620001d9578063081812fc14620001f0575b600080fd5b620001766200017036600462001a91565b6200051e565b005b3480156200018557600080fd5b506200019d6200019736600462001b4e565b6200071e565b60405190151581526020015b60405180910390f35b348015620001bf57600080fd5b50620001ca6200074c565b604051620001a9919062001bc2565b62000176620001ea36600462001bf4565b620007e6565b348015620001fd57600080fd5b50620002156200020f36600462001c23565b6200085a565b6040516001600160a01b039091168152602001620001a9565b3480156200023b57600080fd5b50620001766200024d36600462001c3d565b62000883565b3480156200026057600080fd5b50620001766200027236600462001c6a565b620009a3565b3480156200028557600080fd5b50620002156200029736600462001c23565b6009602052600090815260409020546001600160a01b031681565b348015620002bf57600080fd5b5062000176620002d136600462001ca0565b62000a7e565b348015620002e457600080fd5b5062000176620002f636600462001ca0565b62000ab6565b3480156200030957600080fd5b50620003406200031b36600462001c23565b600a60205260009081526040902080546001909101546001600160a01b039091169082565b604080516001600160a01b039093168352602083019190915201620001a9565b3480156200036d57600080fd5b50620002156200037f36600462001c23565b62000ad3565b3480156200039257600080fd5b50620003aa620003a436600462001ce1565b62000b35565b604051908152602001620001a9565b348015620003c657600080fd5b506200017662000bbd565b348015620003de57600080fd5b506007546001600160a01b031662000215565b348015620003fe57600080fd5b50620001ca62000bd5565b3480156200041657600080fd5b50620003aa66470de4df82000081565b3480156200043357600080fd5b50620001766200044536600462001cff565b62000be6565b3480156200045857600080fd5b50620001766200046a36600462001d3f565b62000bf7565b3480156200047d57600080fd5b50620001ca6200048f36600462001c23565b62000c36565b6200019d620004a636600462001c23565b62000d57565b348015620004b957600080fd5b506200019d620004cb36600462001dc4565b6001600160a01b03918216600090815260056020908152604080832093909416825291909152205460ff1690565b3480156200050657600080fd5b50620001766200051836600462001ce1565b62000f1a565b66470de4df8200003414620005a05760405162461bcd60e51b815260206004820152603e60248201527f56616c75652073656e74206973206e6f7420657175616c7320746f207468652060448201527f7265717569726564204554482076616c75652028302e303520455448292e000060648201526084015b60405180910390fd5b82841015620006375760405162461bcd60e51b815260206004820152605660248201527f4c6f636b656420616d6f756e74206f6620746f6b656e73206973206e6f74206160448201527f6c6c6f7765642c20697420697320626967676572207468616e2074686520707260648201527537bb34b232b21034b734ba34b0b61039bab838363c9760511b608482015260a40162000597565b60006200064360085490565b905062000651338262000f99565b6200065d81876200112a565b6200066c600880546001019055565b84848484336040516200067f90620019cd565b6200068f95949392919062001df3565b604051809103906000f080158015620006ac573d6000803e3d6000fd5b506000828152600960205260409081902080546001600160a01b0319166001600160a01b03939093169283179055517f7442ba643602640a6e9a4181caa94d1469d7205c57a1a425173b1480ad1e67a1916200070e9184918a91339062001e43565b60405180910390a1505050505050565b60006001600160e01b03198216632483248360e11b14806200074657506200074682620011f9565b92915050565b6060600080546200075d9062001e7f565b80601f01602080910402602001604051908101604052809291908181526020018280546200078b9062001e7f565b8015620007dc5780601f10620007b057610100808354040283529160200191620007dc565b820191906000526020600020905b815481529060010190602001808311620007be57829003601f168201915b5050505050905090565b600082815260096020526040908190205490516367808ce160e11b81526001600160a01b0383811660048301529091169063cf0119c29034906024016000604051808303818588803b1580156200083c57600080fd5b505af115801562000851573d6000803e3d6000fd5b50505050505050565b600062000867826200124c565b506000908152600460205260409020546001600160a01b031690565b6000620008908262000ad3565b9050806001600160a01b0316836001600160a01b031603620008ff5760405162461bcd60e51b815260206004820152602160248201527f4552433732313a20617070726f76616c20746f2063757272656e74206f776e656044820152603960f91b606482015260840162000597565b336001600160a01b03821614806200091e57506200091e8133620004cb565b620009925760405162461bcd60e51b815260206004820152603d60248201527f4552433732313a20617070726f76652063616c6c6572206973206e6f7420746f60448201527f6b656e206f776e6572206f7220617070726f76656420666f7220616c6c000000606482015260840162000597565b6200099e8383620012ad565b505050565b816000620009b18262000ad3565b9050336001600160a01b0382161462000a335760405162461bcd60e51b815260206004820152603b60248201527f596f7520617265206e6f74207468652070726f7065727479206f776e65722c2060448201527f746875732063616e6e6f7420646f207468697320616374696f6e210000000000606482015260840162000597565b50506040805180820182526001600160a01b03948516815260208082019384526000948552600a90529220915182546001600160a01b03191693169290921781559051600190910155565b62000a8a33826200131d565b62000aa95760405162461bcd60e51b8152600401620005979062001ebb565b6200099e838383620013a1565b6200099e8383836040518060200160405280600081525062000bf7565b6000818152600260205260408120546001600160a01b031680620007465760405162461bcd60e51b8152602060048201526018602482015277115490cdcc8c4e881a5b9d985b1a59081d1bdad95b88125160421b604482015260640162000597565b60006001600160a01b03821662000ba15760405162461bcd60e51b815260206004820152602960248201527f4552433732313a2061646472657373207a65726f206973206e6f7420612076616044820152683634b21037bbb732b960b91b606482015260840162000597565b506001600160a01b031660009081526003602052604090205490565b62000bc762001511565b62000bd360006200156d565b565b6060600180546200075d9062001e7f565b62000bf3338383620015bf565b5050565b62000c0333836200131d565b62000c225760405162461bcd60e51b8152600401620005979062001ebb565b62000c30848484846200168f565b50505050565b606062000c43826200124c565b6000828152600660205260408120805462000c5e9062001e7f565b80601f016020809104026020016040519081016040528092919081815260200182805462000c8c9062001e7f565b801562000cdd5780601f1062000cb15761010080835404028352916020019162000cdd565b820191906000526020600020905b81548152906001019060200180831162000cbf57829003601f168201915b50505050509050600062000cfc60408051602081019091526000815290565b9050805160000362000d0f575092915050565b81511562000d4457808260405160200162000d2c92919062001f08565b60405160208183030381529060405292505050919050565b62000d4f84620016c9565b949350505050565b6000818152600a60209081526040808320815180830190925280546001600160a01b0316808352600190910154928201929092528391331462000e035760405162461bcd60e51b815260206004820152603c60248201527f596f7520617265206e6f74207468652070726f70657274792072656e7465652c60448201527f20746875732063616e6e6f7420646f207468697320616374696f6e2100000000606482015260840162000597565b6000848152600a6020908152604091829020825180840190935280546001600160a01b0316835260010154908201819052341462000eaa5760405162461bcd60e51b815260206004820152603c60248201527f56616c75652073656e7420746f20706179207468652072656e742073686f756c60448201527f642062652065786163746c79207468652072656e742076616c75652e00000000606482015260840162000597565b6000858152600960205260408082205490516001600160a01b039091169190829034908381818185875af1925050503d806000811462000f07576040519150601f19603f3d011682016040523d82523d6000602084013e62000f0c565b606091505b509098975050505050505050565b62000f2462001511565b6001600160a01b03811662000f8b5760405162461bcd60e51b815260206004820152602660248201527f4f776e61626c653a206e6577206f776e657220697320746865207a65726f206160448201526564647265737360d01b606482015260840162000597565b62000f96816200156d565b50565b6001600160a01b03821662000ff15760405162461bcd60e51b815260206004820181905260248201527f4552433732313a206d696e7420746f20746865207a65726f2061646472657373604482015260640162000597565b6000818152600260205260409020546001600160a01b031615620010585760405162461bcd60e51b815260206004820152601c60248201527f4552433732313a20746f6b656e20616c7265616479206d696e74656400000000604482015260640162000597565b6000818152600260205260409020546001600160a01b031615620010bf5760405162461bcd60e51b815260206004820152601c60248201527f4552433732313a20746f6b656e20616c7265616479206d696e74656400000000604482015260640162000597565b6001600160a01b038216600081815260036020908152604080832080546001019055848352600290915280822080546001600160a01b0319168417905551839291907fddf252ad1be2c89b69c2b068fc378daa952ba7f163c4a11628f55a4df523b3ef908290a45050565b6000828152600260205260409020546001600160a01b0316620011a75760405162461bcd60e51b815260206004820152602e60248201527f45524337323155524953746f726167653a2055524920736574206f66206e6f6e60448201526d32bc34b9ba32b73a103a37b5b2b760911b606482015260840162000597565b6000828152600660205260409020620011c1828262001f8d565b506040518281527ff8e1a15aba9398e019f0b49df1a4fde98ee17ae345cb5f6b5e2c27f5033e8ce79060200160405180910390a15050565b60006001600160e01b031982166380ac58cd60e01b14806200122b57506001600160e01b03198216635b5e139f60e01b145b806200074657506301ffc9a760e01b6001600160e01b031983161462000746565b6000818152600260205260409020546001600160a01b031662000f965760405162461bcd60e51b8152602060048201526018602482015277115490cdcc8c4e881a5b9d985b1a59081d1bdad95b88125160421b604482015260640162000597565b600081815260046020526040902080546001600160a01b0319166001600160a01b0384169081179091558190620012e48262000ad3565b6001600160a01b03167f8c5be1e5ebec7d5bd14f71427d1e84f3dd0314c0f7b2291e5b200ac8c7c3b92560405160405180910390a45050565b6000806200132b8362000ad3565b9050806001600160a01b0316846001600160a01b031614806200137357506001600160a01b0380821660009081526005602090815260408083209388168352929052205460ff165b8062000d4f5750836001600160a01b03166200138f846200085a565b6001600160a01b031614949350505050565b826001600160a01b0316620013b68262000ad3565b6001600160a01b031614620013df5760405162461bcd60e51b815260040162000597906200205a565b6001600160a01b038216620014435760405162461bcd60e51b8152602060048201526024808201527f4552433732313a207472616e7366657220746f20746865207a65726f206164646044820152637265737360e01b606482015260840162000597565b826001600160a01b0316620014588262000ad3565b6001600160a01b031614620014815760405162461bcd60e51b815260040162000597906200205a565b600081815260046020908152604080832080546001600160a01b03199081169091556001600160a01b0387811680865260038552838620805460001901905590871680865283862080546001019055868652600290945282852080549092168417909155905184937fddf252ad1be2c89b69c2b068fc378daa952ba7f163c4a11628f55a4df523b3ef91a4505050565b6007546001600160a01b0316331462000bd35760405162461bcd60e51b815260206004820181905260248201527f4f776e61626c653a2063616c6c6572206973206e6f7420746865206f776e6572604482015260640162000597565b600780546001600160a01b038381166001600160a01b0319831681179093556040519116919082907f8be0079c531659141344cd1fd0a4f28419497f9722a3daafe3b4186f6b6457e090600090a35050565b816001600160a01b0316836001600160a01b031603620016225760405162461bcd60e51b815260206004820152601960248201527f4552433732313a20617070726f766520746f2063616c6c657200000000000000604482015260640162000597565b6001600160a01b03838116600081815260056020908152604080832094871680845294825291829020805460ff191686151590811790915591519182527f17307eab39ab6107e8899845ad3d59bd9653f200f220920489ca2b5937696c31910160405180910390a3505050565b6200169c848484620013a1565b620016aa8484848462001746565b62000c305760405162461bcd60e51b815260040162000597906200209f565b6060620016d6826200124c565b6000620016ee60408051602081019091526000815290565b905060008151116200171057604051806020016040528060008152506200173f565b806200171c8462001854565b6040516020016200172f92919062001f08565b6040516020818303038152906040525b9392505050565b60006001600160a01b0384163b156200184957604051630a85bd0160e11b81526001600160a01b0385169063150b7a02906200178d903390899088908890600401620020f1565b6020604051808303816000875af1925050508015620017cb575060408051601f3d908101601f19168201909252620017c89181019062002130565b60015b6200182e573d808015620017fc576040519150601f19603f3d011682016040523d82523d6000602084013e62001801565b606091505b508051600003620018265760405162461bcd60e51b815260040162000597906200209f565b805181602001fd5b6001600160e01b031916630a85bd0160e11b14905062000d4f565b506001949350505050565b606060006200186383620018ee565b600101905060008167ffffffffffffffff811115620018865762001886620019db565b6040519080825280601f01601f191660200182016040528015620018b1576020820181803683370190505b5090508181016020015b600019016f181899199a1a9b1b9c1cb0b131b232b360811b600a86061a8153600a8504945084620018bb57509392505050565b60008072184f03e93ff9f4daa797ed6e38ed64bf6a1f0160401b83106200192e5772184f03e93ff9f4daa797ed6e38ed64bf6a1f0160401b830492506040015b6d04ee2d6d415b85acef810000000083106200195b576d04ee2d6d415b85acef8100000000830492506020015b662386f26fc1000083106200197a57662386f26fc10000830492506010015b6305f5e100831062001993576305f5e100830492506008015b6127108310620019a857612710830492506004015b60648310620019bb576064830492506002015b600a8310620007465760010192915050565b61167e806200215183390190565b634e487b7160e01b600052604160045260246000fd5b600067ffffffffffffffff8084111562001a0f5762001a0f620019db565b604051601f8501601f19908116603f0116810190828211818310171562001a3a5762001a3a620019db565b8160405280935085815286868601111562001a5457600080fd5b858560208301376000602087830101525050509392505050565b600082601f83011262001a8057600080fd5b6200173f83833560208501620019f1565b600080600080600060a0868803121562001aaa57600080fd5b853567ffffffffffffffff8082111562001ac357600080fd5b62001ad189838a0162001a6e565b96506020880135955060408801359450606088013591508082111562001af657600080fd5b62001b0489838a0162001a6e565b9350608088013591508082111562001b1b57600080fd5b5062001b2a8882890162001a6e565b9150509295509295909350565b6001600160e01b03198116811462000f9657600080fd5b60006020828403121562001b6157600080fd5b81356200173f8162001b37565b60005b8381101562001b8b57818101518382015260200162001b71565b50506000910152565b6000815180845262001bae81602086016020860162001b6e565b601f01601f19169290920160200192915050565b6020815260006200173f602083018462001b94565b80356001600160a01b038116811462001bef57600080fd5b919050565b6000806040838503121562001c0857600080fd5b8235915062001c1a6020840162001bd7565b90509250929050565b60006020828403121562001c3657600080fd5b5035919050565b6000806040838503121562001c5157600080fd5b62001c5c8362001bd7565b946020939093013593505050565b60008060006060848603121562001c8057600080fd5b62001c8b8462001bd7565b95602085013595506040909401359392505050565b60008060006060848603121562001cb657600080fd5b62001cc18462001bd7565b925062001cd16020850162001bd7565b9150604084013590509250925092565b60006020828403121562001cf457600080fd5b6200173f8262001bd7565b6000806040838503121562001d1357600080fd5b62001d1e8362001bd7565b91506020830135801515811462001d3457600080fd5b809150509250929050565b6000806000806080858703121562001d5657600080fd5b62001d618562001bd7565b935062001d716020860162001bd7565b925060408501359150606085013567ffffffffffffffff81111562001d9557600080fd5b8501601f8101871362001da757600080fd5b62001db887823560208401620019f1565b91505092959194509250565b6000806040838503121562001dd857600080fd5b62001de38362001bd7565b915062001c1a6020840162001bd7565b85815284602082015260a06040820152600062001e1460a083018662001b94565b828103606084015262001e28818662001b94565b91505060018060a01b03831660808301529695505050505050565b84815260806020820152600062001e5e608083018662001b94565b6001600160a01b039485166040840152929093166060909101529392505050565b600181811c9082168062001e9457607f821691505b60208210810362001eb557634e487b7160e01b600052602260045260246000fd5b50919050565b6020808252602d908201527f4552433732313a2063616c6c6572206973206e6f7420746f6b656e206f776e6560408201526c1c881bdc88185c1c1c9bdd9959609a1b606082015260800190565b6000835162001f1c81846020880162001b6e565b83519083019062001f3281836020880162001b6e565b01949350505050565b601f8211156200099e57600081815260208120601f850160051c8101602086101562001f645750805b601f850160051c820191505b8181101562001f855782815560010162001f70565b505050505050565b815167ffffffffffffffff81111562001faa5762001faa620019db565b62001fc28162001fbb845462001e7f565b8462001f3b565b602080601f83116001811462001ffa576000841562001fe15750858301515b600019600386901b1c1916600185901b17855562001f85565b600085815260208120601f198616915b828110156200202b578886015182559484019460019091019084016200200a565b50858210156200204a5787850151600019600388901b60f8161c191681555b5050505050600190811b01905550565b60208082526025908201527f4552433732313a207472616e736665722066726f6d20696e636f72726563742060408201526437bbb732b960d91b606082015260800190565b60208082526032908201527f4552433732313a207472616e7366657220746f206e6f6e20455243373231526560408201527131b2b4bb32b91034b6b83632b6b2b73a32b960711b606082015260800190565b6001600160a01b0385811682528416602082015260408101839052608060608201819052600090620021269083018462001b94565b9695505050505050565b6000602082840312156200214357600080fd5b81516200173f8162001b3756fe60806040523480156200001157600080fd5b506040516200167e3803806200167e83398101604081905262000034916200028c565b82826003620000448382620003bc565b506004620000538282620003bc565b505050620000706200006a620000a660201b60201c565b620000aa565b60068490556200008184866200049e565b6007556200008f81620000aa565b6200009b8186620000fc565b5050505050620004d0565b3390565b600580546001600160a01b038381166001600160a01b0319831681179093556040519116919082907f8be0079c531659141344cd1fd0a4f28419497f9722a3daafe3b4186f6b6457e090600090a35050565b6001600160a01b038216620001575760405162461bcd60e51b815260206004820152601f60248201527f45524332303a206d696e7420746f20746865207a65726f206164647265737300604482015260640160405180910390fd5b80600260008282546200016b9190620004ba565b90915550506001600160a01b038216600081815260208181526040808320805486019055518481527fddf252ad1be2c89b69c2b068fc378daa952ba7f163c4a11628f55a4df523b3ef910160405180910390a35050565b505050565b634e487b7160e01b600052604160045260246000fd5b600082601f830112620001ef57600080fd5b81516001600160401b03808211156200020c576200020c620001c7565b604051601f8301601f19908116603f01168101908282118183101715620002375762000237620001c7565b816040528381526020925086838588010111156200025457600080fd5b600091505b8382101562000278578582018301518183018401529082019062000259565b600093810190920192909252949350505050565b600080600080600060a08688031215620002a557600080fd5b85516020870151604088015191965094506001600160401b0380821115620002cc57600080fd5b620002da89838a01620001dd565b94506060880151915080821115620002f157600080fd5b506200030088828901620001dd565b608088015190935090506001600160a01b03811681146200032057600080fd5b809150509295509295909350565b600181811c908216806200034357607f821691505b6020821081036200036457634e487b7160e01b600052602260045260246000fd5b50919050565b601f821115620001c257600081815260208120601f850160051c81016020861015620003935750805b601f850160051c820191505b81811015620003b4578281556001016200039f565b505050505050565b81516001600160401b03811115620003d857620003d8620001c7565b620003f081620003e984546200032e565b846200036a565b602080601f8311600181146200042857600084156200040f5750858301515b600019600386901b1c1916600185901b178555620003b4565b600085815260208120601f198616915b82811015620004595788860151825594840194600190910190840162000438565b5085821015620004785787850151600019600388901b60f8161c191681555b5050505050600190811b01905550565b634e487b7160e01b600052601160045260246000fd5b81810381811115620004b457620004b462000488565b92915050565b80820180821115620004b457620004b462000488565b61119e80620004e06000396000f3fe60806040526004361061012d5760003560e01c806395d89b41116100a5578063d67732151161006c578063d677321514610333578063dd62ed3e14610349578063e59955a814610369578063e67172b514610389578063ee8d7f8c146103b6578063f2fde38b146103d057005b806395d89b41146102b5578063a457c2d7146102ca578063a9059cbb146102ea578063cf0119c21461030a578063d4919c711461031d57005b8063313ce567116100f4578063313ce567146101f0578063395093511461020c5780636ab28bc81461022c57806370a0823114610242578063715018a6146102785780638da5cb5b1461028d57005b806306fdde031461014e578063095ea7b31461017957806318160ddd146101a957806323b872dd146101c85780632e92abdd146101e857005b3661014c5734600860008282546101449190610e9b565b925050819055005b005b34801561015a57600080fd5b506101636103f0565b6040516101709190610eae565b60405180910390f35b34801561018557600080fd5b50610199610194366004610f18565b610482565b6040519015158152602001610170565b3480156101b557600080fd5b506002545b604051908152602001610170565b3480156101d457600080fd5b506101996101e3366004610f42565b61049c565b6101996104c0565b3480156101fc57600080fd5b5060405160128152602001610170565b34801561021857600080fd5b50610199610227366004610f18565b6106e2565b34801561023857600080fd5b506101ba60065481565b34801561024e57600080fd5b506101ba61025d366004610f7e565b6001600160a01b031660009081526020819052604090205490565b34801561028457600080fd5b5061014c610704565b34801561029957600080fd5b506005546040516001600160a01b039091168152602001610170565b3480156102c157600080fd5b50610163610718565b3480156102d657600080fd5b506101996102e5366004610f18565b610727565b3480156102f657600080fd5b50610199610305366004610f18565b6107a2565b61014c610318366004610f7e565b6107b0565b34801561032957600080fd5b506101ba60075481565b34801561033f57600080fd5b506101ba60085481565b34801561035557600080fd5b506101ba610364366004610fa0565b6109ba565b34801561037557600080fd5b506101ba610384366004610f7e565b6109e5565b34801561039557600080fd5b506101ba6103a4366004610f7e565b60096020526000908152604090205481565b3480156103c257600080fd5b506101ba655af3107a400081565b3480156103dc57600080fd5b5061014c6103eb366004610f7e565b610a1e565b6060600380546103ff90610fd3565b80601f016020809104026020016040519081016040528092919081815260200182805461042b90610fd3565b80156104785780601f1061044d57610100808354040283529160200191610478565b820191906000526020600020905b81548152906001019060200180831161045b57829003601f168201915b5050505050905090565b600033610490818585610a97565b60019150505b92915050565b6000336104aa858285610bbb565b6104b5858585610c35565b506001949350505050565b3360009081526020819052604081205481106105495760405162461bcd60e51b815260206004820152603b60248201527f596f7520617265206e6f74206120746f6b656e20686f6c6465722c207468757360448201527f2063616e6e6f742063616c6c20746869732066756e6374696f6e21000000000060648201526084015b60405180910390fd5b476000610555336109e5565b336000908152600960205260409020546008546064916105749161100d565b61057e9190611036565b610588919061104a565b9050600082116105da5760405162461bcd60e51b815260206004820152601e60248201527f5468657265206973206e6f2062616c616e636520617661696c61626c652100006044820152606401610540565b600081116106455760405162461bcd60e51b815260206004820152603260248201527f486f6c64657220646f6573206e6f74206861766520616e79206469766964656e6044820152716420746f207769746864726177206e6f772160701b6064820152608401610540565b6008543360008181526009602052604080822093909355915183908381818185875af1925050503d8060008114610698576040519150601f19603f3d011682016040523d82523d6000602084013e61069d565b606091505b505060408051338152602081018590529192507fb70dbf0e62ac2891fc0dccea9117219168105932d8f1537152476ad5e9f7a19d910160405180910390a19250505090565b6000336104908185856106f583836109ba565b6106ff9190610e9b565b610a97565b61070c610dd9565b6107166000610e33565b565b6060600480546103ff90610fd3565b6000338161073582866109ba565b9050838110156107955760405162461bcd60e51b815260206004820152602560248201527f45524332303a2064656372656173656420616c6c6f77616e63652062656c6f77604482015264207a65726f60d81b6064820152608401610540565b6104b58286868403610a97565b600033610490818585610c35565b6107c0655af3107a400034611061565b156108515760405162461bcd60e51b815260206004820152605560248201527f56616c7565206f66207468697320636f696e2069732065786163746c7920302e60448201527f30303031204554482c206974206973206e6f7420706f737369626c6520746f20606482015274627579206c657373207468616e203120756e69742160581b608482015260a401610540565b600061085f6012600a611159565b61086f655af3107a400034611036565b610879919061104a565b90506007548111156108f5576040805162461bcd60e51b81526020600482015260248101919091527f546865726520617265206e6f7420656e6f75676820617661696c61626c65207460448201527f6f6b656e7320746f20636f6d706c6574652074686973206f7065726174696f6e6064820152608401610540565b61091161090a6005546001600160a01b031690565b8383610c35565b8060076000828254610923919061100d565b90915550506005546040516001600160a01b03909116903490600081818185875af1925050503d8060008114610975576040519150601f19603f3d011682016040523d82523d6000602084013e61097a565b606091505b505060408051338152602081018490527fdd06b66c3ba8126086cd863137d6f3b86ce5bcf4309cac390cc265e39194d0b292500160405180910390a15050565b6001600160a01b03918216600090815260016020908152604080832093909416825291909152205490565b60006109f060025490565b6001600160a01b038316600090815260208190526040902054610a1490606461104a565b6104969190611036565b610a26610dd9565b6001600160a01b038116610a8b5760405162461bcd60e51b815260206004820152602660248201527f4f776e61626c653a206e6577206f776e657220697320746865207a65726f206160448201526564647265737360d01b6064820152608401610540565b610a9481610e33565b50565b6001600160a01b038316610af95760405162461bcd60e51b8152602060048201526024808201527f45524332303a20617070726f76652066726f6d20746865207a65726f206164646044820152637265737360e01b6064820152608401610540565b6001600160a01b038216610b5a5760405162461bcd60e51b815260206004820152602260248201527f45524332303a20617070726f766520746f20746865207a65726f206164647265604482015261737360f01b6064820152608401610540565b6001600160a01b0383811660008181526001602090815260408083209487168084529482529182902085905590518481527f8c5be1e5ebec7d5bd14f71427d1e84f3dd0314c0f7b2291e5b200ac8c7c3b925910160405180910390a3505050565b6000610bc784846109ba565b90506000198114610c2f5781811015610c225760405162461bcd60e51b815260206004820152601d60248201527f45524332303a20696e73756666696369656e7420616c6c6f77616e63650000006044820152606401610540565b610c2f8484848403610a97565b50505050565b6001600160a01b038316610c995760405162461bcd60e51b815260206004820152602560248201527f45524332303a207472616e736665722066726f6d20746865207a65726f206164604482015264647265737360d81b6064820152608401610540565b6001600160a01b038216610cfb5760405162461bcd60e51b815260206004820152602360248201527f45524332303a207472616e7366657220746f20746865207a65726f206164647260448201526265737360e81b6064820152608401610540565b6001600160a01b03831660009081526020819052604090205481811015610d735760405162461bcd60e51b815260206004820152602660248201527f45524332303a207472616e7366657220616d6f756e7420657863656564732062604482015265616c616e636560d01b6064820152608401610540565b6001600160a01b03848116600081815260208181526040808320878703905593871680835291849020805487019055925185815290927fddf252ad1be2c89b69c2b068fc378daa952ba7f163c4a11628f55a4df523b3ef910160405180910390a3610c2f565b6005546001600160a01b031633146107165760405162461bcd60e51b815260206004820181905260248201527f4f776e61626c653a2063616c6c6572206973206e6f7420746865206f776e65726044820152606401610540565b600580546001600160a01b038381166001600160a01b0319831681179093556040519116919082907f8be0079c531659141344cd1fd0a4f28419497f9722a3daafe3b4186f6b6457e090600090a35050565b634e487b7160e01b600052601160045260246000fd5b8082018082111561049657610496610e85565b600060208083528351808285015260005b81811015610edb57858101830151858201604001528201610ebf565b506000604082860101526040601f19601f8301168501019250505092915050565b80356001600160a01b0381168114610f1357600080fd5b919050565b60008060408385031215610f2b57600080fd5b610f3483610efc565b946020939093013593505050565b600080600060608486031215610f5757600080fd5b610f6084610efc565b9250610f6e60208501610efc565b9150604084013590509250925092565b600060208284031215610f9057600080fd5b610f9982610efc565b9392505050565b60008060408385031215610fb357600080fd5b610fbc83610efc565b9150610fca60208401610efc565b90509250929050565b600181811c90821680610fe757607f821691505b60208210810361100757634e487b7160e01b600052602260045260246000fd5b50919050565b8181038181111561049657610496610e85565b634e487b7160e01b600052601260045260246000fd5b60008261104557611045611020565b500490565b808202811582820484141761049657610496610e85565b60008261107057611070611020565b500690565b600181815b808511156110b057816000190482111561109657611096610e85565b808516156110a357918102915b93841c939080029061107a565b509250929050565b6000826110c757506001610496565b816110d457506000610496565b81600181146110ea57600281146110f457611110565b6001915050610496565b60ff84111561110557611105610e85565b50506001821b610496565b5060208310610133831016604e8410600b8410161715611133575081810a610496565b61113d8383611075565b806000190482111561115157611151610e85565b029392505050565b6000610f9960ff8416836110b856fea26469706673582212204c86494019ec78f398d75c0d3f97ca7d07eaa73585aaf29441f2d3fff37c12a964736f6c63430008120033a2646970667358221220ac3ca5681b8d2d1ebd367d203eda41643381ed1198521e17f5a411eef24d9a0f64736f6c63430008120033",
  "linkReferences": {},
  "deployedLinkReferences": {}
}