{
  "_format": "hh-sol-artifact-1",
  "contractName": "RealStateCoin",
  "sourceName": "contracts/RealStateCoin.sol",
  "abi": [
    {
      "inputs": [
        {
          "internalType": "uint256",
          "name": "initialSupply",
          "type": "uint256"
        },
        {
          "internalType": "uint256",
          "name": "lockedCoinAmount",
          "type": "uint256"
        },
        {
          "internalType": "string",
          "name": "coinName",
          "type": "string"
        },
        {
          "internalType": "string",
          "name": "coinSymbol",
          "type": "string"
        },
        {
          "internalType": "address",
          "name": "owner",
          "type": "address"
        }
      ],
      "stateMutability": "nonpayable",
      "type": "constructor"
    },
    {
      "anonymous": false,
      "inputs": [
        {
          "indexed": true,
          "internalType": "address",
          "name": "owner",
          "type": "address"
        },
        {
          "indexed": true,
          "internalType": "address",
          "name": "spender",
          "type": "address"
        },
        {
          "indexed": false,
          "internalType": "uint256",
          "name": "value",
          "type": "uint256"
        }
      ],
      "name": "Approval",
      "type": "event"
    },
    {
      "anonymous": false,
      "inputs": [
        {
          "indexed": false,
          "internalType": "address",
          "name": "buyer",
          "type": "address"
        },
        {
          "indexed": false,
          "internalType": "uint256",
          "name": "amount",
          "type": "uint256"
        }
      ],
      "name": "BuyToken",
      "type": "event"
    },
    {
      "anonymous": false,
      "inputs": [
        {
          "indexed": false,
          "internalType": "address",
          "name": "receiver",
          "type": "address"
        },
        {
          "indexed": false,
          "internalType": "uint256",
          "name": "amount",
          "type": "uint256"
        }
      ],
      "name": "DividendPaid",
      "type": "event"
    },
    {
      "anonymous": false,
      "inputs": [
        {
          "indexed": true,
          "internalType": "address",
          "name": "previousOwner",
          "type": "address"
        },
        {
          "indexed": true,
          "internalType": "address",
          "name": "newOwner",
          "type": "address"
        }
      ],
      "name": "OwnershipTransferred",
      "type": "event"
    },
    {
      "anonymous": false,
      "inputs": [
        {
          "indexed": true,
          "internalType": "address",
          "name": "from",
          "type": "address"
        },
        {
          "indexed": true,
          "internalType": "address",
          "name": "to",
          "type": "address"
        },
        {
          "indexed": false,
          "internalType": "uint256",
          "name": "value",
          "type": "uint256"
        }
      ],
      "name": "Transfer",
      "type": "event"
    },
    {
      "stateMutability": "payable",
      "type": "fallback"
    },
    {
      "inputs": [],
      "name": "COIN_PRICE",
      "outputs": [
        {
          "internalType": "uint256",
          "name": "",
          "type": "uint256"
        }
      ],
      "stateMutability": "view",
      "type": "function"
    },
    {
      "inputs": [
        {
          "internalType": "address",
          "name": "owner",
          "type": "address"
        },
        {
          "internalType": "address",
          "name": "spender",
          "type": "address"
        }
      ],
      "name": "allowance",
      "outputs": [
        {
          "internalType": "uint256",
          "name": "",
          "type": "uint256"
        }
      ],
      "stateMutability": "view",
      "type": "function"
    },
    {
      "inputs": [
        {
          "internalType": "address",
          "name": "spender",
          "type": "address"
        },
        {
          "internalType": "uint256",
          "name": "amount",
          "type": "uint256"
        }
      ],
      "name": "approve",
      "outputs": [
        {
          "internalType": "bool",
          "name": "",
          "type": "bool"
        }
      ],
      "stateMutability": "nonpayable",
      "type": "function"
    },
    {
      "inputs": [],
      "name": "availableTokenAmount",
      "outputs": [
        {
          "internalType": "uint256",
          "name": "",
          "type": "uint256"
        }
      ],
      "stateMutability": "view",
      "type": "function"
    },
    {
      "inputs": [
        {
          "internalType": "address",
          "name": "account",
          "type": "address"
        }
      ],
      "name": "balanceOf",
      "outputs": [
        {
          "internalType": "uint256",
          "name": "",
          "type": "uint256"
        }
      ],
      "stateMutability": "view",
      "type": "function"
    },
    {
      "inputs": [
        {
          "internalType": "address",
          "name": "to",
          "type": "address"
        }
      ],
      "name": "buyCoins",
      "outputs": [],
      "stateMutability": "payable",
      "type": "function"
    },
    {
      "inputs": [],
      "name": "decimals",
      "outputs": [
        {
          "internalType": "uint8",
          "name": "",
          "type": "uint8"
        }
      ],
      "stateMutability": "view",
      "type": "function"
    },
    {
      "inputs": [
        {
          "internalType": "address",
          "name": "spender",
          "type": "address"
        },
        {
          "internalType": "uint256",
          "name": "subtractedValue",
          "type": "uint256"
        }
      ],
      "name": "decreaseAllowance",
      "outputs": [
        {
          "internalType": "bool",
          "name": "",
          "type": "bool"
        }
      ],
      "stateMutability": "nonpayable",
      "type": "function"
    },
    {
      "inputs": [
        {
          "internalType": "address",
          "name": "holder",
          "type": "address"
        }
      ],
      "name": "getHolderPercentage",
      "outputs": [
        {
          "internalType": "uint256",
          "name": "",
          "type": "uint256"
        }
      ],
      "stateMutability": "view",
      "type": "function"
    },
    {
      "inputs": [
        {
          "internalType": "address",
          "name": "spender",
          "type": "address"
        },
        {
          "internalType": "uint256",
          "name": "addedValue",
          "type": "uint256"
        }
      ],
      "name": "increaseAllowance",
      "outputs": [
        {
          "internalType": "bool",
          "name": "",
          "type": "bool"
        }
      ],
      "stateMutability": "nonpayable",
      "type": "function"
    },
    {
      "inputs": [
        {
          "internalType": "address",
          "name": "",
          "type": "address"
        }
      ],
      "name": "lastWithdrawalBase",
      "outputs": [
        {
          "internalType": "uint256",
          "name": "",
          "type": "uint256"
        }
      ],
      "stateMutability": "view",
      "type": "function"
    },
    {
      "inputs": [],
      "name": "lockedAmount",
      "outputs": [
        {
          "internalType": "uint256",
          "name": "",
          "type": "uint256"
        }
      ],
      "stateMutability": "view",
      "type": "function"
    },
    {
      "inputs": [],
      "name": "name",
      "outputs": [
        {
          "internalType": "string",
          "name": "",
          "type": "string"
        }
      ],
      "stateMutability": "view",
      "type": "function"
    },
    {
      "inputs": [],
      "name": "owner",
      "outputs": [
        {
          "internalType": "address",
          "name": "",
          "type": "address"
        }
      ],
      "stateMutability": "view",
      "type": "function"
    },
    {
      "inputs": [],
      "name": "renounceOwnership",
      "outputs": [],
      "stateMutability": "nonpayable",
      "type": "function"
    },
    {
      "inputs": [],
      "name": "symbol",
      "outputs": [
        {
          "internalType": "string",
          "name": "",
          "type": "string"
        }
      ],
      "stateMutability": "view",
      "type": "function"
    },
    {
      "inputs": [],
      "name": "totalRentIncomeReceived",
      "outputs": [
        {
          "internalType": "uint256",
          "name": "",
          "type": "uint256"
        }
      ],
      "stateMutability": "view",
      "type": "function"
    },
    {
      "inputs": [],
      "name": "totalSupply",
      "outputs": [
        {
          "internalType": "uint256",
          "name": "",
          "type": "uint256"
        }
      ],
      "stateMutability": "view",
      "type": "function"
    },
    {
      "inputs": [
        {
          "internalType": "address",
          "name": "to",
          "type": "address"
        },
        {
          "internalType": "uint256",
          "name": "amount",
          "type": "uint256"
        }
      ],
      "name": "transfer",
      "outputs": [
        {
          "internalType": "bool",
          "name": "",
          "type": "bool"
        }
      ],
      "stateMutability": "nonpayable",
      "type": "function"
    },
    {
      "inputs": [
        {
          "internalType": "address",
          "name": "from",
          "type": "address"
        },
        {
          "internalType": "address",
          "name": "to",
          "type": "address"
        },
        {
          "internalType": "uint256",
          "name": "amount",
          "type": "uint256"
        }
      ],
      "name": "transferFrom",
      "outputs": [
        {
          "internalType": "bool",
          "name": "",
          "type": "bool"
        }
      ],
      "stateMutability": "nonpayable",
      "type": "function"
    },
    {
      "inputs": [
        {
          "internalType": "address",
          "name": "newOwner",
          "type": "address"
        }
      ],
      "name": "transferOwnership",
      "outputs": [],
      "stateMutability": "nonpayable",
      "type": "function"
    },
    {
      "inputs": [],
      "name": "withdrawDividends",
      "outputs": [
        {
          "internalType": "bool",
          "name": "",
          "type": "bool"
        }
      ],
      "stateMutability": "payable",
      "type": "function"
    },
    {
      "stateMutability": "payable",
      "type": "receive"
    }
  ],
  "bytecode": "0x60806040523480156200001157600080fd5b506040516200167e3803806200167e83398101604081905262000034916200028c565b82826003620000448382620003bc565b506004620000538282620003bc565b505050620000706200006a620000a660201b60201c565b620000aa565b60068490556200008184866200049e565b6007556200008f81620000aa565b6200009b8186620000fc565b5050505050620004d0565b3390565b600580546001600160a01b038381166001600160a01b0319831681179093556040519116919082907f8be0079c531659141344cd1fd0a4f28419497f9722a3daafe3b4186f6b6457e090600090a35050565b6001600160a01b038216620001575760405162461bcd60e51b815260206004820152601f60248201527f45524332303a206d696e7420746f20746865207a65726f206164647265737300604482015260640160405180910390fd5b80600260008282546200016b9190620004ba565b90915550506001600160a01b038216600081815260208181526040808320805486019055518481527fddf252ad1be2c89b69c2b068fc378daa952ba7f163c4a11628f55a4df523b3ef910160405180910390a35050565b505050565b634e487b7160e01b600052604160045260246000fd5b600082601f830112620001ef57600080fd5b81516001600160401b03808211156200020c576200020c620001c7565b604051601f8301601f19908116603f01168101908282118183101715620002375762000237620001c7565b816040528381526020925086838588010111156200025457600080fd5b600091505b8382101562000278578582018301518183018401529082019062000259565b600093810190920192909252949350505050565b600080600080600060a08688031215620002a557600080fd5b85516020870151604088015191965094506001600160401b0380821115620002cc57600080fd5b620002da89838a01620001dd565b94506060880151915080821115620002f157600080fd5b506200030088828901620001dd565b608088015190935090506001600160a01b03811681146200032057600080fd5b809150509295509295909350565b600181811c908216806200034357607f821691505b6020821081036200036457634e487b7160e01b600052602260045260246000fd5b50919050565b601f821115620001c257600081815260208120601f850160051c81016020861015620003935750805b601f850160051c820191505b81811015620003b4578281556001016200039f565b505050505050565b81516001600160401b03811115620003d857620003d8620001c7565b620003f081620003e984546200032e565b846200036a565b602080601f8311600181146200042857600084156200040f5750858301515b600019600386901b1c1916600185901b178555620003b4565b600085815260208120601f198616915b82811015620004595788860151825594840194600190910190840162000438565b5085821015620004785787850151600019600388901b60f8161c191681555b5050505050600190811b01905550565b634e487b7160e01b600052601160045260246000fd5b81810381811115620004b457620004b462000488565b92915050565b80820180821115620004b457620004b462000488565b61119e80620004e06000396000f3fe60806040526004361061012d5760003560e01c806395d89b41116100a5578063d67732151161006c578063d677321514610333578063dd62ed3e14610349578063e59955a814610369578063e67172b514610389578063ee8d7f8c146103b6578063f2fde38b146103d057005b806395d89b41146102b5578063a457c2d7146102ca578063a9059cbb146102ea578063cf0119c21461030a578063d4919c711461031d57005b8063313ce567116100f4578063313ce567146101f0578063395093511461020c5780636ab28bc81461022c57806370a0823114610242578063715018a6146102785780638da5cb5b1461028d57005b806306fdde031461014e578063095ea7b31461017957806318160ddd146101a957806323b872dd146101c85780632e92abdd146101e857005b3661014c5734600860008282546101449190610e9b565b925050819055005b005b34801561015a57600080fd5b506101636103f0565b6040516101709190610eae565b60405180910390f35b34801561018557600080fd5b50610199610194366004610f18565b610482565b6040519015158152602001610170565b3480156101b557600080fd5b506002545b604051908152602001610170565b3480156101d457600080fd5b506101996101e3366004610f42565b61049c565b6101996104c0565b3480156101fc57600080fd5b5060405160128152602001610170565b34801561021857600080fd5b50610199610227366004610f18565b6106e2565b34801561023857600080fd5b506101ba60065481565b34801561024e57600080fd5b506101ba61025d366004610f7e565b6001600160a01b031660009081526020819052604090205490565b34801561028457600080fd5b5061014c610704565b34801561029957600080fd5b506005546040516001600160a01b039091168152602001610170565b3480156102c157600080fd5b50610163610718565b3480156102d657600080fd5b506101996102e5366004610f18565b610727565b3480156102f657600080fd5b50610199610305366004610f18565b6107a2565b61014c610318366004610f7e565b6107b0565b34801561032957600080fd5b506101ba60075481565b34801561033f57600080fd5b506101ba60085481565b34801561035557600080fd5b506101ba610364366004610fa0565b6109ba565b34801561037557600080fd5b506101ba610384366004610f7e565b6109e5565b34801561039557600080fd5b506101ba6103a4366004610f7e565b60096020526000908152604090205481565b3480156103c257600080fd5b506101ba655af3107a400081565b3480156103dc57600080fd5b5061014c6103eb366004610f7e565b610a1e565b6060600380546103ff90610fd3565b80601f016020809104026020016040519081016040528092919081815260200182805461042b90610fd3565b80156104785780601f1061044d57610100808354040283529160200191610478565b820191906000526020600020905b81548152906001019060200180831161045b57829003601f168201915b5050505050905090565b600033610490818585610a97565b60019150505b92915050565b6000336104aa858285610bbb565b6104b5858585610c35565b506001949350505050565b3360009081526020819052604081205481106105495760405162461bcd60e51b815260206004820152603b60248201527f596f7520617265206e6f74206120746f6b656e20686f6c6465722c207468757360448201527f2063616e6e6f742063616c6c20746869732066756e6374696f6e21000000000060648201526084015b60405180910390fd5b476000610555336109e5565b336000908152600960205260409020546008546064916105749161100d565b61057e9190611036565b610588919061104a565b9050600082116105da5760405162461bcd60e51b815260206004820152601e60248201527f5468657265206973206e6f2062616c616e636520617661696c61626c652100006044820152606401610540565b600081116106455760405162461bcd60e51b815260206004820152603260248201527f486f6c64657220646f6573206e6f74206861766520616e79206469766964656e6044820152716420746f207769746864726177206e6f772160701b6064820152608401610540565b6008543360008181526009602052604080822093909355915183908381818185875af1925050503d8060008114610698576040519150601f19603f3d011682016040523d82523d6000602084013e61069d565b606091505b505060408051338152602081018590529192507fb70dbf0e62ac2891fc0dccea9117219168105932d8f1537152476ad5e9f7a19d910160405180910390a19250505090565b6000336104908185856106f583836109ba565b6106ff9190610e9b565b610a97565b61070c610dd9565b6107166000610e33565b565b6060600480546103ff90610fd3565b6000338161073582866109ba565b9050838110156107955760405162461bcd60e51b815260206004820152602560248201527f45524332303a2064656372656173656420616c6c6f77616e63652062656c6f77604482015264207a65726f60d81b6064820152608401610540565b6104b58286868403610a97565b600033610490818585610c35565b6107c0655af3107a400034611061565b156108515760405162461bcd60e51b815260206004820152605560248201527f56616c7565206f66207468697320636f696e2069732065786163746c7920302e60448201527f30303031204554482c206974206973206e6f7420706f737369626c6520746f20606482015274627579206c657373207468616e203120756e69742160581b608482015260a401610540565b600061085f6012600a611159565b61086f655af3107a400034611036565b610879919061104a565b90506007548111156108f5576040805162461bcd60e51b81526020600482015260248101919091527f546865726520617265206e6f7420656e6f75676820617661696c61626c65207460448201527f6f6b656e7320746f20636f6d706c6574652074686973206f7065726174696f6e6064820152608401610540565b61091161090a6005546001600160a01b031690565b8383610c35565b8060076000828254610923919061100d565b90915550506005546040516001600160a01b03909116903490600081818185875af1925050503d8060008114610975576040519150601f19603f3d011682016040523d82523d6000602084013e61097a565b606091505b505060408051338152602081018490527fdd06b66c3ba8126086cd863137d6f3b86ce5bcf4309cac390cc265e39194d0b292500160405180910390a15050565b6001600160a01b03918216600090815260016020908152604080832093909416825291909152205490565b60006109f060025490565b6001600160a01b038316600090815260208190526040902054610a1490606461104a565b6104969190611036565b610a26610dd9565b6001600160a01b038116610a8b5760405162461bcd60e51b815260206004820152602660248201527f4f776e61626c653a206e6577206f776e657220697320746865207a65726f206160448201526564647265737360d01b6064820152608401610540565b610a9481610e33565b50565b6001600160a01b038316610af95760405162461bcd60e51b8152602060048201526024808201527f45524332303a20617070726f76652066726f6d20746865207a65726f206164646044820152637265737360e01b6064820152608401610540565b6001600160a01b038216610b5a5760405162461bcd60e51b815260206004820152602260248201527f45524332303a20617070726f766520746f20746865207a65726f206164647265604482015261737360f01b6064820152608401610540565b6001600160a01b0383811660008181526001602090815260408083209487168084529482529182902085905590518481527f8c5be1e5ebec7d5bd14f71427d1e84f3dd0314c0f7b2291e5b200ac8c7c3b925910160405180910390a3505050565b6000610bc784846109ba565b90506000198114610c2f5781811015610c225760405162461bcd60e51b815260206004820152601d60248201527f45524332303a20696e73756666696369656e7420616c6c6f77616e63650000006044820152606401610540565b610c2f8484848403610a97565b50505050565b6001600160a01b038316610c995760405162461bcd60e51b815260206004820152602560248201527f45524332303a207472616e736665722066726f6d20746865207a65726f206164604482015264647265737360d81b6064820152608401610540565b6001600160a01b038216610cfb5760405162461bcd60e51b815260206004820152602360248201527f45524332303a207472616e7366657220746f20746865207a65726f206164647260448201526265737360e81b6064820152608401610540565b6001600160a01b03831660009081526020819052604090205481811015610d735760405162461bcd60e51b815260206004820152602660248201527f45524332303a207472616e7366657220616d6f756e7420657863656564732062604482015265616c616e636560d01b6064820152608401610540565b6001600160a01b03848116600081815260208181526040808320878703905593871680835291849020805487019055925185815290927fddf252ad1be2c89b69c2b068fc378daa952ba7f163c4a11628f55a4df523b3ef910160405180910390a3610c2f565b6005546001600160a01b031633146107165760405162461bcd60e51b815260206004820181905260248201527f4f776e61626c653a2063616c6c6572206973206e6f7420746865206f776e65726044820152606401610540565b600580546001600160a01b038381166001600160a01b0319831681179093556040519116919082907f8be0079c531659141344cd1fd0a4f28419497f9722a3daafe3b4186f6b6457e090600090a35050565b634e487b7160e01b600052601160045260246000fd5b8082018082111561049657610496610e85565b600060208083528351808285015260005b81811015610edb57858101830151858201604001528201610ebf565b506000604082860101526040601f19601f8301168501019250505092915050565b80356001600160a01b0381168114610f1357600080fd5b919050565b60008060408385031215610f2b57600080fd5b610f3483610efc565b946020939093013593505050565b600080600060608486031215610f5757600080fd5b610f6084610efc565b9250610f6e60208501610efc565b9150604084013590509250925092565b600060208284031215610f9057600080fd5b610f9982610efc565b9392505050565b60008060408385031215610fb357600080fd5b610fbc83610efc565b9150610fca60208401610efc565b90509250929050565b600181811c90821680610fe757607f821691505b60208210810361100757634e487b7160e01b600052602260045260246000fd5b50919050565b8181038181111561049657610496610e85565b634e487b7160e01b600052601260045260246000fd5b60008261104557611045611020565b500490565b808202811582820484141761049657610496610e85565b60008261107057611070611020565b500690565b600181815b808511156110b057816000190482111561109657611096610e85565b808516156110a357918102915b93841c939080029061107a565b509250929050565b6000826110c757506001610496565b816110d457506000610496565b81600181146110ea57600281146110f457611110565b6001915050610496565b60ff84111561110557611105610e85565b50506001821b610496565b5060208310610133831016604e8410600b8410161715611133575081810a610496565b61113d8383611075565b806000190482111561115157611151610e85565b029392505050565b6000610f9960ff8416836110b856fea2646970667358221220eae852ba666557db44b055559a51f443f9e98efbec8fb1607bd6a1d51540a52e64736f6c63430008120033",
  "linkReferences": {},
  "deployedLinkReferences": {}
}